:020000040800F2
:100000000823002091010008192100087F1D000825
:1000100019200008C70500080D290008000000008D
:10002000000000000000000000000000892400081B
:10003000AF080008000000001B21000899240008F8
:10004000AB010008AB010008AB010008AB010008E0
:10005000AB010008AB010008AB010008AB010008D0
:10006000AB010008AB010008AB010008AB010008C0
:10007000AB01000879080008AB010008AB010008DB
:10008000AB010008AB010008AB010008AB010008A0
:10009000AB010008AB010008AB010008AB01000890
:1000A000AB010008AB010008AB010008AB01000880
:1000B000AB01000821250008AB010008AB010008D6
:1000C000AB010008AB010008AB010008AB01000860
:1000D000AB010008AB010008AB010008AB01000850
:1000E000AB010008AB010008AB01000800F002F80A
:1000F00000F03FF80AA090E8000C82448344AAF183
:100100000107DA4501D100F034F8AFF2090EBAE880
:100110000F0013F0010F18BFFB1A43F0010318473B
:10012000DC5B0000FC5B0000103A24BF78C878C19B
:10013000FAD8520724BF30C830C144BF04680C60ED
:10014000704700000023002400250026103A28BF35
:1001500078C1FBD8520728BF30C148BF0B60704739
:10016000642900F07180002070471FB51FBD10B5D5
:1001700010BD00F0EEF91146FFF7F7FF04F0A8F903
:1001800000F00CFA03B4FFF7F2FF03BC00F014FA1E
:100190000948804709480047FEE7FEE7FEE7FEE71B
:1001A000FEE7FEE7FEE7FEE7FEE7FEE70448054957
:1001B000054A064B704700001D250008ED000008A9
:1001C000081D002008230020081F0020081F002011
:1001D0000FB41CB5074B06AA7B44694600900598EE
:1001E00000F09FF90020694600F0AEF91CBC5DF8F4
:1001F00014FB00006D03000070B5044685690068BB
:10020000C10601D5302600E02026C00707D070BD0A
:10021000D4E9012130469047206A401C20626D1EBF
:10022000F6D570BD70B5044685690078C00707D162
:1002300070BDD4E9012120209047206A401C206233
:100240006D1EF6D570BD00002DE9F0410646002474
:1002500010687529314616A510D0AFF3008000282C
:1002600002DA404213A507E031688A0701D512A5DA
:1002700002E0490704D511A5012401E0AFF3008095
:1002800000210A2206F1240709E0B0FBF2FCB0FBD2
:10029000F2F302FB1C00303078541846491C002849
:1002A000F3D123462A463046BDE8F04100F0DBB8E2
:1002B000000000002D0000002B00000020000000C6
:1002C0002DE9F0474FF0000A89460446C0F820A007
:1002D0002046E1688847002876D0252806D0D4E952
:1002E00001219047206A401C2062F1E7E168204626
:1002F00000258847C4F81CA006460027C4F818A0AB
:100300002A2E09D0304603F096FF38B304EB870855
:10031000303EC8F8186019E059F8041B204604EB79
:1003200087029161E1688847012F064618D1E0698C
:10033000002820DA25F020051DE0D8F8180000EB91
:10034000800006EB40003038C8F818002046E1680D
:100350008847064603F06FFF0028EED1012F0AD030
:100360002E2E08D12046E16888477F1C0646022FC2
:1003700045F02005C4DBA069002803DA404245F0BF
:100380000105A061E80701D025F01005B6B1A6F17E
:100390004100192802D8203645F400654A46314606
:1003A000204625604D46FFF7DBFE58B1012806D0F8
:1003B000ED1D25F0070000F1080989E704E005F1CB
:1003C000040985E730468AE7206ABDE8F0874FF0E8
:1003D00000020429C0F0128010F0030C00F01B8012
:1003E000CCF1040CBCF1020F18BF00F8012BA8BF20
:1003F00020F8022BA1EB0C0100F00DB85FEAC17CE4
:1004000024BF00F8012B00F8012B48BF00F8012B96
:1004100070474FF0000200B51346944696462039C7
:1004200022BFA0E80C50A0E80C50B1F12001BFF4AD
:10043000F7AF090728BFA0E80C5048BF0CC05DF813
:1004400004EB890028BF40F8042B08BF704748BF61
:1004500020F8022B11F0804F18BF00F8012B7047D5
:100460007047704770472DE9F0470D469946924610
:10047000044600F124080168880604D5E06921F0EB
:100480001001216000E00120A84201DD471B00E0CF
:100490000027A1697A1902EB0900081AA0612078E7
:1004A000C00602D42046FFF7A7FE002608E0D4E9E4
:1004B00001211AF806009047206A401C761C206231
:1004C0004E45F4DB2078C0060AD52046FFF794FE9F
:1004D00006E0D4E9012130209047206A401C2062C8
:1004E000381EA7F10107F4DC07E0D4E9012118F870
:1004F00005009047206A401C2062281EA5F10105D6
:10050000F3DC2046FFF78EFE2078000602D502209D
:10051000BDE8F0870120FBE701694A1C0261087809
:10052000704700B58FB0CDE9013100210591054933
:100530007944CDE9031011466846FFF7C1FE0FB0BC
:1005400000BD0000E5FFFFFF0A6802F8010B0A602A
:100550007047754600F02CF8AE46050069465346D4
:1005600020F00700854618B020B5FFF71FFEBDE854
:1005700020404FF000064FF000074FF000084FF00A
:10058000000B21F00701AC46ACE8C009ACE8C0099B
:10059000ACE8C009ACE8C0098D46704710B5044608
:1005A000AFF300802046BDE81040FFF7EBBD000030
:1005B00000487047A81C002001491820ABBEFEE788
:1005C000260002007047FEE710B5002205490648E4
:1005D00000F097FF03490022BDE81040C91C024803
:1005E00000F068BF25000020440000202DE9FC41F8
:1005F000444803F027FE444D287808B901202870AC
:10060000FFF7E2FF6878401CC0B26870042877D317
:100610003D4E0A27F61CF41D70783CA1B0FBF7F2A2
:10062000A01CFFF7D5FD7078B0FBF7F107FB1102B6
:1006300036A1E01CFFF7CCFD307834A1B0FBF7F217
:10064000201DFFF7C5FD3078B0FBF7F107FB110265
:100650002EA1601DFFF7BCFD0D21022001F016FF49
:1006600000262079CDE90006962314224221254850
:1006700002F0A3F91121022001F008FF6079CDE911
:1006800000069623142242211E4802F096F91721F3
:10069000022001F0FBFEA078CDE90006962314228B
:1006A0004221184802F089F91B21022001F0EEFED8
:1006B000E078CDE90006962314224221114802F089
:1006C0007CF996241427CDE90074422315220321D6
:1006D0000C4803F091FDCDE9007442231522052159
:1006E000084803F089FD0A490820CDE900010346C6
:1006F00001221146034803F007FF00F0E7F86E708F
:10070000BDE8FC818419002022000020253164000E
:10071000CA4B00082DE9FF41544803F093FD002423
:10072000DFF84C810294039498F80210491CC9B276
:1007300088F8021004297DD396211420CDE9000108
:1007400042230B220421494803F056FD08F1060517
:100750000A26687847A1B0FBF6F202A8FFF738FD39
:10076000687802AFB0FBF6F106FB110241A1781CDC
:10077000FFF72EFDA8783FA1B0FBF6F2B81CFFF7FB
:1007800027FDA878B0FBF6F106FB110239A1F81C91
:10079000FFF71EFD287837A1B0FBF6F2381DFFF7F2
:1007A00017FD2878B0FBF6F106FB110231A1781D88
:1007B000FFF70EFD0321022001F068FE9DF80800FE
:1007C000CDE90004962314224221284802F0F5F8CE
:1007D0000721022001F05AFE9DF80900CDE900042E
:1007E000962314224221214802F0E7F80D2102202D
:1007F00001F04CFE9DF80A00CDE900049623142276
:1008000042211A4802F0D9F81121022001F03EFEDF
:100810009DF80B00CDE900049623142242211348D1
:1008200002F0CBF81721022001F030FE9DF80C00F9
:10083000962300E018E0CDE90004142242210B4881
:1008400002F0BBF81B21022001F020FE9DF80D00F4
:10085000CDE90004962314224221044802F0ADF8A9
:1008600000F034F888F80240BDE8FF8184190020C8
:100870002200002025316400014800F037B8000054
:10088000B000002030B590F840500124AC40C56B5A
:100890006C60046863604368102B036803D0996040
:1008A0000068C26030BD9A600068C16030BD7047AA
:1008B000054900BF91F85120012AFBD101464FF4B0
:1008C000C052014800F0B0BF5800002010B50449E4
:1008D000044802F01CF8BDE810400248FFF7E8BFEA
:1008E0008C1900208401002072B6FEE72DE9F05F2C
:1008F000C16B0C6801680B68D0F840C0042202FA92
:100900000CF2494DDFF824A1494E4A4FDFF828B1D7
:10091000DFF828E122422CD05A072AD50A6892062D
:1009200003D40A6822F004020A600168A94201D1D6
:10093000042219E0514501D1402215E0B14202D113
:100940004FF4806210E0B94202D14FF480420BE0D4
:10095000594502D14FF4802206E0714502D14FF48F
:10096000800201E04FF080622F4908394A60C16A75
:100970003BE04FF0020808FA0CF818EA040F4FF0B9
:1009800000094FF0010235D05FEA837832D50B6859
:100990009B0605D40B6823F00A030B6080F8212026
:1009A0000168A94201D1022219E0514501D120225A
:1009B00015E0B14202D14FF4007210E0B94202D109
:1009C0004FF400520BE0594502D14FF4003206E0DB
:1009D000714502D14FF4001201E04FF0007212494C
:1009E00008394A6080F82090816A00291AD0BDE851
:1009F000F05F0847082505FA0CF5254212D01B07C1
:100A000010D50B6823F00E030B6090F84010C36BF9
:100A100002FA01F15960826380F8212080F8209069
:100A2000016BE2E7BDE8F09F080002401C000240B5
:100A30003000024044000240580002406C00024076
:100A400030B528B308C8134914221944B1FBF2F198
:100A50008900C16310498163022141771A6843F616
:100A6000F0718A43D0E900142143D0E902452C43B8
:100A7000214304692143446921438469214311438B
:100A8000196000214163012242770177084630BD99
:100A9000012030BDF8FFFDBF0000024070B50446E4
:100AA00090F82000002501280CD0012084F82000B7
:100AB00094F821600020012E06D084F82000022541
:100AC000284670BD022070BD022684F82160A06314
:100AD0002068066826F0010606602046FFF7D2FE71
:100AE000E06A00282068016802D041F00E0106E0AB
:100AF00021F0040101602068016841F00A010160F1
:100B00002068016841F001010160D9E770B5044631
:100B100000F008F90546601C02D00448007804443F
:100B200000F000F9401BA042FAD370BD0000002085
:100B30002DE9F84FDFF8B8910024A9F1040B234602
:100B40000F2709F1040AABF1040EC9E00125A54005
:100B50002A40AA427DD1674ED1F804C0ACEB06080A
:100B6000B44532D014DCBCF1030F3AD009DCBCF13F
:100B7000000F2AD0BCF1010F1CD0BCF1020F31D103
:100B80001DE0BCF1110F17D0BCF1120F2AD119E0F2
:100B9000B8F5881F19D006DCB8F5803F15D0B8F538
:100BA000801F1FD111E0B8F5001F0ED0B8F5041F4B
:100BB00018D10AE0CB6815E0CB681B1D12E0CB68AA
:100BC00008330FE0CB680C330CE08B682BB1012BA2
:100BD0004FF0080303D0456104E0042302E00561FF
:100BE00000E00023FF2A01D8064601E000F10406D8
:100BF0004FEA840501D9A5F12005D6F8008007FA4F
:100C000005FC28EA0C0803FA05F548EA0508C6F8C9
:100C100000804D68ED0062D5374DAE6946F00106A3
:100C2000AE61AD6924F0030605F001050095334D72
:100C300006EB050CDCF80850A607360F07FA06F895
:100C400025EA0805DFF8B880404503D14FF00008D9
:100C500017E044E0DFF8AC80404502D14FF00108D6
:100C60000FE0DFF8A480404502D14FF0020808E011
:100C7000DFF89880404502D14FF0030801E04FF0C3
:100C8000040808FA06F848EA0508CCF808804D6818
:100C9000D9F80060ED024D4601D5164300E09643B9
:100CA0002E604D68DAF80060AD02554601D5164356
:100CB00000E096432E604D68DBF80060AD035D46B2
:100CC00001D5164300E096432E604D68DEF80060C3
:100CD000ED03754601D5164300E096432E60641C73
:100CE0000D682A46E5407FF431AFBDE8F88F00007B
:100CF00008040140000011100010024000000140F3
:100D000000080140000C01400010014000140140A7
:100D10008068084000D0012070470AB10161704727
:100D20000904FBE7014880687047000000000020CC
:100D300002488168027811448160704700000020F9
:100D4000074810B5016841F010010160032000F070
:100D500075F80F2000F006F800F024F8002010BD10
:100D60000020024070B50D4D04464FF47A7128788A
:100D7000B1FBF0F00A490968B1FBF0F000F0BCFDEE
:100D800048B9102C07D200222146501E00F036F838
:100D900000206C6070BD012070BD000000000020CC
:100DA0000C0000200C4808B5816941F00101816107
:100DB000816901F001010091C16941F08051C16177
:100DC000C06900F0805000900448416821F0E06163
:100DD00041F00071416008BD001002400000014078
:100DE000002809DB00F01F0201219140400980002A
:100DF00000F1E020C0F8001170470000F0B40E4B85
:100E00001B680C46C3F30223C3F10705042D00D968
:100E10000425191D072901D2002300E0DB1E01264D
:100E200006FA05F1491E214099409E40761E164063
:100E30003143F0BC03F0EFB90CED00E0064900F0DF
:100E4000070208684FF6FF03184040EA0220034AF1
:100E500010430860704700000CED00E00000FA0548
:100E6000014901200862704700000E4210B501469A
:100E70000020234C012922D0022939D010291DD16C
:100E800061682268D20119D51E48C1F38342C903A3
:100E9000805C0AD561681B4AC1F34041921E515CD7
:100EA000194AB2FBF1F1484301E01849484361682F
:100EB000490203D440000321B0FBF1F010BD226AC7
:100EC000C2F30121012903D1920701D5C80310BD46
:100ED000022905D1626A920702D549F6404010BD49
:100EE0000329FCD121688903F9D54FF2244010BDB4
:100EF00000F01AF96168C1F38131491C4900DBE750
:100F000000100240A24B000800127A0000093D00C8
:100F10002DE9F84305460078354CC00754D0E06908
:100F20000026C00008D4E06940F08050E061E0692C
:100F3000012600F0805000902E480168C90512D4A7
:100F40000168804641F480710160FFF7EBFE0746BF
:100F500005E000BFFFF7E6FEC01B642823D8D8F8E1
:100F60000000C005F6D5206A10F4407021D0A98891
:100F700001F4407181421CD0206A1F49012220F4F3
:100F800040700A6000220A602062C00711D0FFF79B
:100F9000C9FE074641F2883808E000BFFFF7C2FEED
:100FA000C11B414502D90320BDE8F883206A8007B0
:100FB000F4D5206A696820F44070084320621EB1AD
:100FC000E06920F08050E0612878800705D56068EE
:100FD000A96820F44040084360602878C00605D521
:100FE0006068E96820F48000084360600020DBE767
:100FF0000010024000700040400442422DE9F047DA
:101000000F46050061D0434E306800F00700B8423B
:1010100009D2306820F0070038433060306800F0B3
:101020000700B84251D128683B4C810712D54007D0
:1010300003D5606840F4E06060602878000703D55D
:10104000606840F4605060606068A96820F0F0005B
:10105000084360602878C00728D06868012810D04D
:101060002168022810D0890700292EDA616821F052
:10107000030101436160FFF755FE804641F2883964
:101080000DE021688903EFE78901EDE7FFF74AFEEC
:10109000A0EB0801494502D90320BDE8F08760684C
:1010A000696800F00C00B0EB810FEFD1306800F000
:1010B0000700B8420BD9306820F007003843306091
:1010C000306800F00700B84201D00120E5E7287839
:1010D000400705D56068E96820F4E0600843606077
:1010E0002878000706D56068296920F4605040EA36
:1010F000C100606000F028F86168084AC1F303117C
:10110000515CC8400649086006480068FFF72AFE9F
:101110000020C2E70020024000100240B24B00084D
:101120000C000020040000200448054900684968BC
:10113000044AC1F3C221515CC84070470C00002032
:1011400000100240C24B00080E4A51680E4801F0E0
:101150000C03042B11D0082B0FD10C48C1F383438F
:10116000C903C05C0AD55168084AC1F34041921EC8
:10117000515C054A5043B0FBF1F0704704494843C5
:10118000704700000010024000127A00904B0008E7
:1011900000093D002DE9F84F040070D02078C04DC3
:1011A000C00749D06868C0F38100012807D068688B
:1011B000C0F38100022809D16868C00306D52868F9
:1011C000800339D560680028E7D035E06068B0F565
:1011D000803F0BD010B1B0F5A02F11D0286820F4BB
:1011E00080302860286820F4802002E0286840F4DD
:1011F00080302860606890B1FFF794FD06460AE0F1
:10120000286840F480202860F0E700BFFFF78AFDDF
:10121000801B642873D828688003F7D50CE0FFF79B
:1012200081FD064605E000BFFFF77CFD801B6428BA
:10123000F0D828688003F7D420789A4E80074FF0C2
:1012400001094FF0000839D5686810F00C0F07D07D
:101250006868C0F38100022809D16868C00306D419
:101260002868800714D52069012808D110E020697A
:10127000B0B1C6F80090FFF755FD074605E00AE15A
:10128000FFF750FDC01B0228C4D828688007F7D597
:101290002868616920F0F80040EAC10028600DE08C
:1012A000C6F80080FFF73EFD074604E0FFF73AFD71
:1012B000C01B022823D828688007F7D420780007AD
:1012C0002CD57948A169D9B1C0F80090FFF72AFD63
:1012D000074604E0FFF726FDC01B02280FD8686A06
:1012E0008007F7D571484FF4FA510068B0FBF1F070
:1012F000009000BF0098411E0091FAD20EE080E0FD
:10130000C0F80080FFF70EFD074604E0FFF70AFD76
:10131000C01B022875D8686A8007F7D42078400778
:1013200060D5E8690027C00008D4E86940F0805023
:10133000E861E869012700F0805000905C4801688E
:10134000C90513D40168834641F480710160FFF739
:10135000E9FC824606E000BFFFF7E4FCA0EB0A00D0
:1013600064284ED8DBF80000C005F5D5E0680128F8
:101370000AD008B1052813D0286A20F0010028629D
:10138000286A20F0040002E0286A40F00100286288
:10139000E06841F2883B98B1FFF7C4FC82460BE05D
:1013A000286A40F004002862EEE700BFFFF7BAFCAD
:1013B000A0EB0A0159455AD8286A8007F6D50CE0F7
:1013C000FFF7B0FC824605E0FFF7ACFCA0EB0A019A
:1013D00059454CD8286A8007F6D41FB1E86920F037
:1013E0008050E861E06988B36968C1F3810102292E
:1013F00044D00228C6F8608004D0FFF793FC04466E
:1014000038E034E0FFF78EFC074604E0FFF78AFC83
:10141000C01B02282BD828688001F7D4206AB0F5B9
:10142000803F05D16868A16820F4003008436860F7
:10143000D4E908010843696821F47411084368601D
:10144000C6F86090FFF76EFC044606E025E000BF9A
:10145000FFF768FC001B022809D828688001F7D52F
:101460001BE000BFFFF75EFC001B022802D903202F
:10147000BDE8F88F28688001F4D40EE00128F7D089
:101480006868226A00F48031914204D1616A00F4F4
:101490007010884201D00120EAE70020E8E7000050
:1014A0000010024000004242800442420C00002032
:1014B00000700040F8B505004FF0000016460C46DD
:1014C000009006D02CB100226946284600F019F899
:1014D00008B10120F8BD287B2070E87BE070697BB3
:1014E0006170A97BA17056B100F018FEE0706078C1
:1014F00000F014FE6070A07800F010FEA0700020D4
:10150000F8BD2DE9F04791460C465FEA00084AD045
:1015100084B3D8F800004068400744D4404600F047
:101520009BFE4FF461620546B0FBF2F1B0FBF2F3B3
:1015300002FB13503C23B0FBF3F0B5FBF2F66070F6
:1015400002FB1650B0FBF3F203FB1200A070182947
:1015500031D31820B1FBF0F7B1FBF0F200FB121011
:101560002070404600F071FE411C04D0A84202D910
:10157000461B02E017E04FF0FF36A7EB071000EB29
:101580004000C0EB001005EBC0152946404600F0B6
:10159000B2FE40B9701C01D0711900E031464046DE
:1015A00000F095FE10B10120BDE8F08739464046B5
:1015B00000F0BFFD00E02170B9F1000F0BD02078E2
:1015C00000F0ACFD2070607800F0A8FD6070A0789D
:1015D00000F0A4FDA0700020E6E7000070B5040054
:1015E00003D0607C002610B105E0012070BD267498
:1015F000204600F03DF802206074204600F052F8CA
:10160000042550BB204600F0EBFD30BB206841684C
:1016100021F007014160A06820B11448016821F061
:10162000010101601148001F0168A26821F4607186
:10163000114301606068411C04D10120FFF716FCD2
:1016400058B1401E2268C0F303419160216880B206
:10165000C860204600F0DEFD08B16574C5E7E6739A
:1016600001206073A0736074002070BD306C004076
:1016700008B50068084988420DD1FFF7F1FB07481B
:10168000C16941F00061C161C069054900F00060B5
:1016900000900120086008BD0028004000100240B2
:1016A0003C04424270B504000AD02068416821F031
:1016B00008014160FFF736FB05464FF47A7608E0F3
:1016C000012070BDFFF72EFB401BB04201D9032063
:1016D00070BD206840680007F4D5002070BD7047D9
:1016E00070B5040009D0606A002540B125616561CC
:1016F000A56294F8510040B10CE0012070BD606813
:10170000B0F5827FF4D0E561F2E784F850502046CE
:1017100000F040F8022084F851002068016821F0B0
:1017200040010160A088218900F4827001F4044125
:101730000843A18901F400610843217C01F0020102
:101740000843217D01F001010843218B01F4007160
:101750000843217F01F03801084394F8201001F07C
:1017600080010843218D01F400510843216808607D
:10177000A069042101EA1040216848602068C1691D
:1017800021F40061C1616565012084F851000020E9
:1017900070BD000070B586B0002506460095019525
:1017A0000295039500681B49884230D11A4988691F
:1017B00040F480508861886900F480500490886902
:1017C00040F0040088618869694600F004000490D4
:1017D000A020009002200190032003900F48FFF703
:1017E000A7F9104C0E4820601020C4E901058020A4
:1017F000C4E903054FF440506561C4E90650204632
:10180000FFF71EF908B1FFF76FF8B464666206B01F
:1018100070BD00000030014000100240000801408F
:1018200030000240B000002070B5044690F850002F
:101830000026012809D0012084F8500094F85100B6
:101840000025012803D002264AE0022070BD89B19C
:1018500082B1032084F8510065652163A286E28687
:10186000A56365642564A587E587A068B0F5004F8A
:1018700002D00BE0012633E02068016821F040012E
:1018800001602068016841F480410160A16C164844
:10189000C862A16C15488862A16C15480863A06CE9
:1018A0004563E38E2268216B0C32A06CFFF7F6F8DB
:1018B00020B1606D40F010006065DBE720680168D2
:1018C000490603D4016841F0400101602068416885
:1018D00041F0200141602068416841F0020141600F
:1018E00084F85050304670BD412300084B23000857
:1018F0001F2300087047704710B5401EB0F1807F6D
:1019000001D3012010BD4FF0E02460610F2160176A
:1019100002F081FC0020A06107202061002010BDA2
:101920007047704770B590F83C20012A26D00124FA
:1019300080F83C40022280F83D2003685A689D6888
:1019400022F070060A6832435A600D4B02689A42D0
:1019500008D0B2F1804F05D00A4B9A4202D00A4B10
:101960009A4204D1496825F080031943916080F8B8
:101970003D40002180F83C10084670BD022070BD3B
:10198000002C0140000400400008004010B5040095
:1019900003D094F83D0010B107E0012010BD0020F5
:1019A00084F83C00204600F01FF8022084F83D0037
:1019B000211D206800F0BAFD012084F8460084F85B
:1019C0003E0084F83F0084F8400084F8410084F829
:1019D000420084F8430084F8440084F8450084F809
:1019E0003D00002010BD000008B501681048B1F1AD
:1019F000804F14D00F4A914219D1C16941F00201C0
:101A0000C161C069002200F00200009011461D2053
:101A1000FFF7F4F9BDE808401D20FFF7E1B9C169FF
:101A200041F00101C161C06900F00100009008BDF2
:101A3000001002400004004090F83D10012901D040
:101A400001207047022180F83D1000680B49884250
:101A500008D0B0F1804F05D00949884202D0094929
:101A6000884204D1816801F00701062903D001688A
:101A700041F001010160002070470000002C01408E
:101A8000000400400008004090F83D10012901D0FA
:101A900001207047022180F83D100168CA6842F0B9
:101AA0000102CA6000680B49884208D0B0F1804F3B
:101AB00005D00949884202D00849884204D181688A
:101AC00001F00701062903D0016841F0010101601E
:101AD00000207047002C0140000400400008004036
:101AE00001680A6A41F211131A4207D10A6A9B106F
:101AF0001A4203D10A6822F001020A60012180F82B
:101B00003D100020704770B5044690F83C00002559
:101B1000012817D0012684F83C60022084F83D009B
:101B20002068826822F0770222F47F42826008688F
:101B3000502838D00DDC20284FD005DC90B3102879
:101B400011D14AE0022070BD302846D040280AD189
:101B50003BE060282FD070280DD0B0F5805F03D017
:101B6000B0F5005F12D0012584F83D60002084F8B4
:101B70003C00284670BDCB68D1E90121206800F007
:101B80000BFD2068816841F0770109E0CB68D1E95D
:101B90000121206800F000FD2068816841F4804147
:101BA0008160E1E719E0CA684968206800F006FD35
:101BB0005021206806E0CA684968206800F00FFDDF
:101BC0006021206800F0F2FCCEE7CA68496820680E
:101BD00000F0F4FC40212068F4E72268014610463A
:101BE000F0E7704770B50446006801694FF00005E2
:101BF000C943890715D4C168C943890711D4E91EAF
:101C0000016101202077206880698007204602D08A
:101C1000FFF7E7FF04E000F098F8204600F096F8A0
:101C2000257720680169C943490717D4C168C943AA
:101C3000490713D46FF00401016102202077206866
:101C4000806910F4407F204602D0FFF7CAFF04E00D
:101C500000F07BF8204600F079F8257720680169CC
:101C6000C943090716D4C168C943090712D46FF0E4
:101C700008010161042020772068C06980072046A0
:101C800002D0FFF7AEFF04E000F05FF8204600F05E
:101C90005DF8257720680169C943C90617D4C16872
:101CA000C943C90613D46FF01001016108202077E1
:101CB0002068C06910F4407F204602D0FFF791FFF2
:101CC00004E000F042F8204600F040F82577206854
:101CD0000169C943C90708D1C168C943C90704D10B
:101CE000891E0161204600F033F820680169C9436C
:101CF000090609D4C168C943090605D46FF08001FB
:101D000001612046FFF70CFE20680169C9434906BE
:101D100009D4C168C943490605D46FF04001016187
:101D2000204600F02BF820680169C94389060BD4CE
:101D3000C168C943890607D46FF0200101612046BC
:101D4000BDE87040FFF7EDBD70BD70477047000003
:101D5000084988420CD108480178491C0170417833
:101D6000491C41708178491C8170C178491CC1703F
:101D7000704700003C0100201E0000207047FEE775
:101D800070B50446007802F0ADFD104902F0ACFCDD
:101D90000546607802F0A6FD294602F0B7FD02F084
:101DA00081FD2071A07802F09DFD294602F0AEFD74
:101DB00002F078FD6071E07802F094FD294602F0AF
:101DC000A5FD02F06FFDA07170BD00000000204174
:101DD0007CB50F4C207858B9601CF0214170A021CF
:101DE00081702821C17001250570FFF7C9FF25709A
:101DF00007482021401DCDE900100122082311468B
:101E0000044802F0DDFBBDE87C40FEF75FBD00004A
:101E10003200002084190020094808B5416941F0CA
:101E2000010141614069002200F00100009011466B
:101E30000D20FEF7E3FFBDE808400D20FEF7D0BF00
:101E40000010024070B586B0002420480094019430
:101E500002940394816941F010018161816901F06C
:101E600010010491816941F020018161816901F0D3
:101E700020010491816941F004018161816901F0CF
:101E800004010491816941F0080181618069104E6B
:101E900000F008004FF400750490002229463046F7
:101EA000FEF73BFF0320CDE900046946304602946B
:101EB000FEF73EFE01210220CDE90210CDE90051DE
:101EC00069463046FEF734FE06B070BD0010024091
:101ED000000C01400A4810B5084901604FF0FF317D
:101EE00041604FF480718160FFF778FB002803D0D8
:101EF000BDE81040FEF7F8BC10BD0000002800400F
:101F000044000020104810B50E4901604FF4827162
:101F10004160002181600122C160C0E904125202C7
:101F200082611022C0E90721416281620A21C162F7
:101F3000FFF7D6FB002803D0BDE81040FEF7D4BC65
:101F400010BD0000003001405800002010B586B0E0
:101F500000241648009401940294039404944FF0D2
:101F600080410594C0E900143F21C0E9024180216D
:101F700004618161FFF70AFD08B1FEF7B5FC4FF47B
:101F80008050009069460948FFF7BDFD08B1FEF793
:101F9000ABFC049404A905480594FFF7C3FC002892
:101FA00001D0FEF7A1FC06B010BD0000F400002037
:101FB00010B586B00024174800940194029403944D
:101FC00004941349059401603F21C0E9011440F2D3
:101FD000E731C0E9031480218161FFF7D7FC08B124
:101FE000FEF782FC4FF48050009069460948FFF7E5
:101FF0008AFD08B1FEF778FC049404A9054805940D
:10200000FFF790FC002801D0FEF76EFC06B010BD73
:10201000000400403C010020FEE7000070B53C4891
:1020200001250024017821B9C0F80240C0F806401B
:102030000570384E02213046FEF76AFE70B101216C
:102040003046FEF765FE58B100213148801CC17052
:102050004279012A06D0022A0DD015E00221F4E7C8
:102060000421F2E744710288521E12B20280002A53
:102070000ADA048008E044710288521C12B202801D
:10208000062A01DD06220280662221B102291DD026
:10209000042922D027E00379042B02D0022B0BD095
:1020A00021E0C4714379042B1DD0052B02D00223FB
:1020B000437118E0447116E084714379032B1BD0FF
:1020C000052B01D0457117E0447115E00379022B0F
:1020D00009D183795B1C837105E00379042B02D15C
:1020E000C3795B1CC3718379642B05D34379052BBA
:1020F00001D0032343718271C379642B05D34379E3
:10210000052B01D004234371C271017170BD000021
:1021100014000020000C0140FEE77047002102E09F
:102120000A38C0B2491C0A28FAD2090740EA1160ED
:1021300070472DE9F04104460025C07B627BA37BFC
:1021400042E0012A16D0032A14D0052A12D0072A09
:1021500010D0082A0ED00A2A0CD00C2A0AD0042A41
:1021600010D0062A0ED0092A0CD00B2A0AD0022A37
:102170000DD028E01F2B0CD30C2A05D101221346C9
:10218000401C20E01E2B04D30123521C1BE01C2BFF
:1021900002D203F1010316E011D183B29E0710D1E0
:1021A0006426B3FBF6F706FB173636B94FF4C8764C
:1021B000B3FBF6F706FB17331BB91D2303E01D2BFA
:1021C00001D1032201236D1C8D42BAD3D1B2E07339
:1021D0006173DAB2A27300F04FF82073BDE8F081AA
:1021E00070B50446FEF79EFD05464FF47A7606E08C
:1021F000FEF798FD401BB04201D9032070BD206856
:1022000040688006F4D52068416841F010014160C3
:10221000002070BD70B504460068416821F01001CF
:102220004160FEF77FFD05464FF47A7607E000BF78
:10223000FEF778FD401BB04201D9032070BD206835
:1022400040688006F4D5002070BD0168086A496ABC
:1022500089B241EA00407047006881698AB2C16969
:102260008BB2816989B28A4203D0C06961F31F4091
:10227000704743EA02407047F0B56424C1EBC103E4
:102280000927A500072603EB01130329B3FBF7F188
:1022900000F5FA60114401440AD2401EB0FBF4F28A
:1022A00001EB9001B0FBF5F0891A0844001D08E02D
:1022B000B0FBF4F201EB9001B0FBF5F0891A084491
:1022C000801CB0FBF6F106FB1100C0B2F0BD70B58A
:1022D0000D4606460024FFF783FF48B93168280CF5
:1022E00008623168A8B248623046FFF793FF00B138
:1022F0000124204670BD70B50D4606460024FFF748
:102300006FFF48B93168280C88613168A8B2C8618C
:102310003046FFF77FFF00B10124204670BD10B5A5
:10232000406A01684A6822F003024A60416D41F048
:1023300010014165012180F85110FFF7D0F910BD5F
:1023400010B5406AFFF7D7FA10BD38B50546446AA4
:10235000FEF7E8FC024628680068800623D420685F
:10236000416821F0200141602068416821F00201AC
:1023700041606421204600F01AF818B1606D40F009
:1023800020006065A068002118B92068C2688068D4
:102390000090E186012084F85100606D18B120465C
:1023A000FFF79DF938BD2046FFF7A4FA38BD38B5D0
:1023B0000B46009204460022802100F009F8002814
:1023C00004D0606D40F020006065032038BD00003F
:1023D0002DE9F8431E46914688460446089DFEF7BF
:1023E000A1FC401B351AFEF79DFC074625480068F6
:1023F000C0F3CB30684338E0701C37D0FEF792FC56
:10240000C01BA84203D215B1009860B32CE020682D
:10241000416821F0E00141606068B0F5827F0BD136
:10242000A068B0F5004F02D0B0F5806F04D12068ED
:10243000016821F040010160A06AB0F5005F09D198
:102440002068016821F4005101602068016841F4AE
:1024500000510160012084F85100002084F85000F0
:102460000320BDE8F8830025401E009020688168A5
:1024700038EA010004D000214945BDD10020F0E731
:102480000121F9E70C00002070470000014A10808C
:102490005180704784190020FEF74ABC70B594B093
:1024A00028216846FDF7B5FF14210AA8FDF7B1FF02
:1024B00000250F9509200124109500901195129583
:1024C0004FF4803004940694CDE901050226CDE94D
:1024D00007604FF4C01009906846FEF75BFE08B134
:1024E00072B6FEE70F20CDE90A064FF48060CDE911
:1024F0000C5002210AA80E95FEF780FD08B172B6B5
:10250000FEE74FF40070CDE90F400FA8FEF700FD85
:10251000002801D072B6FEE714B070BD704700000D
:102520000148FFF75FBB00003C010020F0B50268E6
:10253000164B174C174D4FF08047984205D0B842C4
:1025400003D0A04201D0A84203D122F070064A680D
:102550003243984205D0B84203D0A04201D0A842ED
:1025600003D122F44074CA6822434C6922F08002ED
:10257000224302608A68C2620A688262984201D17C
:102580000969016301214161F0BD0000002C014097
:10259000000400400008004010B5846842EA0322AD
:1025A00024F47F440A432243826010BD826822F0F3
:1025B00070020A4342F007018160704710B5036A58
:1025C000046A24F001040462846924F0F00444EAFB
:1025D000021423F00A020A438461026210BD10B59E
:1025E000036A046A24F010040462846923F0A003DF
:1025F00024F4704444EA023243EA01118261016228
:1026000010BD00000B4C00252078322800D3257027
:1026100060780A2802D3FFF701FD6570A0781428BE
:1026200002D301F0F3FEA570E0786428ECD3E570E6
:10263000EAE700001E0000202DE9FC41554801F0AA
:1026400001FE554C6078401CC0B2607019287DD3E3
:10265000524801F031FE002500287BD084F800505C
:10266000B4F904004E4900EBC00001EB0010082152
:10267000CDE90010062302220121464801F044FF63
:1026800020780A286AD8454E706802F0EFF800B248
:102690000A2790FBF7F243A106F11000FDF798FD21
:1026A000706802F0E3F800B290FBF7F107FB11024B
:1026B0003CA106F11100FDF78BFD3B49706802F06B
:1026C00025F902F0D3F800B290FBF7F107FB1102F5
:1026D00034A106F11200FDF77BFD0C210220FFF76B
:1026E000D5FE307CCDE900050D233B22D1212948C0
:1026F00000F063F910210220FFF7C8FE707CCDE9DD
:1027000000050D233B22D121224800F056F90D216E
:102710003B20CDE90001D123142206211D4801F000
:102720006BFD16210220FFF7B1FEB07CCDE900055C
:102730000D233B22D121174800F03FF91C21022034
:10274000FFF7A4FE43200D233B2201E01FE001E040
:10275000D1210DE02078401C207081E7642020709A
:1027600010210220FFF792FE002358201A468021F4
:10277000CDE90005074800F020F9A088401C00B210
:10278000A080032800DDA580FEF7A0F86570BDE8F5
:10279000FC810000841900203C000020901C0020D7
:1027A0008A4C000825316400000020412DE9FC41DD
:1027B000504801F047FD504CA078401CC0B2A070BA
:1027C000192873D94D4801F077FD002500286FD0F6
:1027D00084F80050B4F906004949C0EB001000EB42
:1027E000400001EB40000621CDE900100222052344
:1027F0001146404801F088FE20780A285CD83F4EF8
:10280000306802F033F800B20A2790FBF7F23DA1DE
:1028100006F11300FDF7DCFC306802F027F800B287
:1028200090FBF7F107FB110236A106F11400FDF74A
:10283000CFFC3549306802F069F802F017F800B2B1
:1028400090FBF7F107FB11022EA106F11500FDF731
:10285000BFFC0C210220FFF719FEF07CCDE900053A
:10286000DE2387223621234800F0A7F8102102201A
:10287000FFF70CFE307DCDE90005DE2387223621EF
:102880001C4800F09AF8DE218720CDE900013623AC
:1028900014220621174801F0AFFC16210220FFF791
:1028A000F5FDDE238722707D36210FE01FE0FFE774
:1028B0002078401C20708DE76420207010210220B9
:1028C000FFF7E4FD002358201A468021CDE90005DA
:1028D000084800F072F8A570E088401C00B2E08063
:1028E000022800DDE580BDE8FC41FDF7EFBFBDE853
:1028F000FC810000841900203C000020901C002076
:10290000CA4E00082531640000002041FEE72DE991
:10291000F04F00238E4683469946002202EB420088
:1029200000210EEB401601EBC904002004EB440526
:10293000741903EB430A6778C740FF0701D0F827F3
:1029400000E0E0274FEA570CC0EBCA0808EB0B0782
:1029500087F807C016F805C02CFA00FC5FEACC7CAB
:1029600002D04FF0F80C01E04FF0E00C4FEA5C0CA5
:1029700087F80FC094F802C02CFA00FC5FEACC7C08
:1029800002D04FF0F80C01E04FF0E00C4FEA5C0C85
:10299000401C87F817C00828CDDB491C5B1C0829A0
:1029A000C1DB521C082AB9DB09F101001FFA80F9CA
:1029B000B9F1040FB1D3BDE8F08F2DE9FC41164603
:1029C000DDE9082C1D460F46040076D06088011D05
:1029D000E18021884B1DA380A2F141031A2B81F0D5
:1029E0003081DFE813F01A006B00D500FE005601BD
:1029F000C50110025D029502E7021803730381030B
:102A000018049604EA045A05CD053B06A106EB0618
:102A10005407B8074D08A608F608401CCDE9006524
:102A2000C2B2C9B23B46204601F0E6FBCDE90065E3
:102A3000A0782178801CC2B23B46204601F0DCFB26
:102A4000CDE900652078A278401CC1B23B46204603
:102A500001F0D2FBCDE90065A0783B46C01CC2B2B4
:102A60002078401CC1B2204601F0C6FBCDE90065CC
:102A70002078A278801CC1B23B46204601F0BCFB06
:102A8000CDE90065A0783B46401CC2B22078801C8E
:102A9000C1B2204601F0B0FBCDE90065A0783B460D
:102AA000801CC2B22078801CC1B2204601F0A4FB79
:102AB000CDE90065A078C01CFDE3FDE3CDE900652C
:102AC000C2B2C9B23B46204601F096FBCDE9006593
:102AD000A0782178401CC2B23B46204601F08CFB16
:102AE000CDE90065A0782178801CC2B23B46204623
:102AF00001F082FBCDE900652078A278401CC1B2CC
:102B00003B46204601F078FBCDE90065A0783B46C6
:102B1000C01CC2B22078401CC1B2204601F06CFB40
:102B2000CDE900652078A278801CC1B23B462046E2
:102B300001F062FBCDE90065A0783B46401CC2B2C3
:102B40002078801CC1B2204601F056FBCDE900651B
:102B5000A0783B46801CC2B22078801CC1B22046BF
:102B600001F04AFBCDE90065A0783B46C01CC2B22B
:102B70002078801CC1B2204601F03EFBCDE9006503
:102B80002078A278C01CFEE3C2B22078001DFBE3CF
:102B9000CDE90065C2B2C9B23B46204601F02CFB2C
:102BA000CDE90065A0782178401CC2B23B462046A2
:102BB00001F022FBCDE90065A0782178801CC2B22B
:102BC0003B46204601F018FBCDE90065A07821784E
:102BD000C01CC2B23B4620467EE2C2B22078001D35
:102BE0008DE3CDE90065C2B2C9B23B46204601F093
:102BF00003FBCDE900652078A278401CC1B23B46BA
:102C0000204601F0F9FACDE900652078A278801C11
:102C1000C1B23B46204601F0EFFACDE900652078CD
:102C2000A278C01CC1B23B46204601F0E5FACDE9CE
:102C300000652078A278001DC1B23B46204601F015
:102C4000DBFACDE90065A0782178401CC2B23B4692
:102C5000204601F0D1FACDE90065A0783B46401C42
:102C6000C2B22078001DC1B2204601F0C5FACDE9FC
:102C70000065A0782178801CC2B23B46204601F056
:102C8000BBFACDE90065A078801CC2B22078001D97
:102C9000FCE3CDE90065C2B2C9B23B46204601F073
:102CA000ABFACDE90065A0782178401CC2B23B4662
:102CB000204601F0A1FACDE90065A0782178801CBA
:102CC000C2B23B46204601F097FACDE90065A078F4
:102CD0002178C01CC2B23B46204601F08DFACDE9F6
:102CE00000652078A278401CC1B23B46204601F026
:102CF00083FACDE90065A0783B46401CC2B220783B
:102D0000801CC1B2204601F077FACDE90065A078B9
:102D10003B46801CC2B22078801CC1B2204601F024
:102D20006BFACDE90065A078C01CC2B22078801C87
:102D3000C1B23B46204601F05FFACDE90065A078BC
:102D40003B46C2B22078801CC1B2204601F054FA42
:102D5000CDE900652078A278C01CC1B23B46204670
:102D600001F04AFACDE900652078A278001DF0E371
:102D7000CDE90065C2B2C9B23B46204601F03CFA3B
:102D8000CDE90065A0782178401CC2B23B462046C0
:102D900001F032FACDE90065A0782178801CC2B23A
:102DA0003B46204601F028FACDE90065A07821785D
:102DB000C01CC2B23B46204601F01EFACDE90065B8
:102DC0002078A278401CC1B23B46204601F014FA9C
:102DD000CDE900652078A278801CC1B23B46204630
:102DE00001F00AFACDE90065A0783B46401CC2B26A
:102DF0002078801CC1B2204601F0FEF9CDE90065C3
:102E0000A078801C31E3401CCDE90065C2B2C9B294
:102E10003B46204601F0F0F9CDE90065A078217825
:102E2000801CC2B23B46204601F0E6F9CDE90065C0
:102E3000A0782178C01CC2B23B46204601F0DCF9E4
:102E4000CDE900652078A278401CC1B23B462046FF
:102E500001F0D2F9CDE900652078A278801CC1B2DA
:102E60003B46204601F0C8F9CDE90065A0783B4615
:102E7000801CC2B22078801CC1B2204601F0BCF98F
:102E8000CDE90065A0783B46C01CC2B22078801C0A
:102E9000C1B2204601F0B0F9CDE90065A07849E360
:102EA000CDE90065C2B2C9B23B46204601F0A4F9A3
:102EB000CDE900652078A278401CC1B23B4620468F
:102EC00001F09AF9CDE900652078A278801CC1B2A2
:102ED0003B46204601F090F9CDE900652078A278C4
:102EE000C01CC1B23B46204601F086F9CDE9006521
:102EF0002078A278001DC1B23B46204601F07CF943
:102F0000CDE90065A078401CC2B22078801CB9E1F0
:102F1000CDE90065C2B2C9B23B46204601F06CF96A
:102F2000CDE90065A0782178401CC2B23B4620461E
:102F300001F062F9CDE90065A0782178801CC2B269
:102F40003B46204601F058F9CDE90065A0783B46A4
:102F5000401CC2B22078401CC1B2204601F04CF99E
:102F6000CDE90065A0783B46401CC2B22078801CA9
:102F7000C1B2204601F040F9CDE90065A0783B469A
:102F8000401CC2B22078C01CC1B2204601F034F906
:102F9000CDE900652078A278001DC1B23B462046ED
:102FA00001F02AF9CDE90065A078401CC2B2207872
:102FB000001DFEE3C01CCDE90065C2B2C9B23B46AC
:102FC000204601F019F9CDE90065A0783B46C01C08
:102FD000C2B22078401CC1B2204601F00DF9CDE903
:102FE0000065A0783B46C01CC2B22078801CC1B2EC
:102FF000204601F001F9CDE90065A0783B46C01CF0
:10300000C2B22078C01CC1B2204601F0F5F8CDE96B
:103010000065A078CDE1CDE90065C2B2C9B23B46FA
:10302000204601F0E9F8CDE900652078A278401C3F
:10303000C1B23B46204601F0DFF8CDE900652078BB
:10304000A278801CC1B23B46204601F0D5F8CDE9FC
:1030500000652078A278C01CC1B23B46204601F032
:10306000CBF8CDE900652078A278001DC1B23B46BF
:10307000204601F0C1F8CDE90065A0783B46401C30
:10308000C2B22078801CC1B2204601F0B5F8CDE96B
:103090000065A0783B46801CC2B22078401CC1B2BB
:1030A000204601F0A9F8CDE90065A0783B46801CD8
:1030B000C2B22078C01CC1B2204601F09DF8CDE913
:1030C0000065A078C01CC2B2207818E1CDE9006587
:1030D000C2B2C9B23B46204601F08EF8CDE9006588
:1030E0002078A278401C23E6CDE90065C2B2491CD5
:1030F000C9B23B46204601F07FF8CDE90065207853
:10310000A278801CC1B23B46204601F075F8CDE99B
:1031100000652078A278C01CC1B23B46204601F071
:103120006BF8CDE900652078A278001DC1B23B465E
:10313000204601F061F8CDE90065A0782178401CB7
:10314000C2B23B46204601F057F8CDE90065A078B1
:103150003B46801CC2B22078401CC1B2204601F020
:103160004BF8CDE90065A0783B46801CC2B22078C0
:10317000801CC1B2204601F03FF8CDE90065A0787F
:103180003B46801CC2B22078C01CC1B2204601F070
:1031900033F8CDE90065A0783B46801CC2B22078A8
:1031A000001DC1B2204601F027F8CDE90065A078E6
:1031B0002178C01CC2B23B46204601F01DF8CDE983
:1031C0000065A0783B46001DC2B22078401CC1B209
:1031D000204601F011F8CDE90065A0783B46001DBE
:1031E000C2B22078801CC1B2204601F005F8CDE9BA
:1031F0000065A0783B46001DC2B22078C01CC1B259
:10320000204600F0F9FFCDE90065A078001DC2B2AC
:103210002078001DFDE3CDE90065C2B2C9B23B468E
:10322000204600F0E9FFCDE900652078A278401C37
:10323000C1B23B46204600F0DFFFCDE900652078B3
:10324000A278801CC1B23B46204600F0D5FFCDE9F4
:1032500000652078A278C01CC1B23B46204600F031
:10326000CBFFCDE900652078A278001DC1B23B46B6
:10327000204600F0C1FFCDE90065A078401CC2B235
:103280002078401CC1B23B46204600F0B5FFCDE996
:103290000065A0783B46801CC2B22078801CC1B279
:1032A000204600F0A9FFCDE90065A0782178C01C78
:1032B000C2B23B4601E0AFE14BE3204600F09CFF89
:1032C000CDE90065A0783B46C01CC2B22078401C06
:1032D000C1B2204600F090FFCDE90065A0783B46E2
:1032E000C01CC2B22078801CC1B2204600F084FF0E
:1032F000CDE90065A078C01CC2B22078C01CC1B264
:103300003B46204600F078FFCDE90065A078C01C60
:103310003AE4401CCDE90065C2B2C9B23B46204642
:1033200000F06AFFCDE90065A0782178801CC2B268
:103330003B46204600F060FFCDE900652078A2788A
:10334000401CC1B23B46204600F056FFCDE9006567
:10335000A0783B46C01CC2B22078401CC1B22046B7
:1033600000F04AFFCDE900652078A278801CC1B248
:103370003B46204600F040FFCDE90065A078C01C28
:10338000C2B2207801E0A3E180E2801CC1B23B46DA
:10339000204600F031FFCDE900652078A278C01CFE
:1033A000C1B23B46204600F027FFCDE90065A0787A
:1033B000C01CC2B22078C01CA0E1CDE90065C2B239
:1033C000C9B23B46204600F017FFCDE90065A07862
:1033D0002178401CC2B23B46204600F00DFFCDE9EB
:1033E0000065A0782178801CC2B23B46204600F0E0
:1033F00003FFCDE900652078A278401CC1B23B46AE
:10340000204600F0F9FECDE90065A0783B46C01CDF
:10341000C2B22078401CC1B2204600F0EDFECDE9DA
:1034200000652078A278801CC1B23B46204600F09F
:10343000E3FECDE90065A0783B46401CC2B220788F
:10344000801CC1B2204600F0D7FECDE90065A0780F
:103450003B46801CC2B22078801CC1B2204600F0DE
:10346000CBFECDE90065A078C01CC2B220783B46F7
:10347000801CC1B2204600F0BFFECDE90065207877
:10348000A278C01CC1B23B46204600E0DAE100F061
:10349000B3FECDE90065A0783AE7401CCDE90065B0
:1034A000C2B2C9B23B46204600F0A6FECDE9006597
:1034B000A0782178801CC2B23B46204600F09CFEDA
:1034C000CDE900652078A278401CC1B23B46204679
:1034D00000F092FECDE90065A0783B46C01CC2B268
:1034E0002078401CC1B2204600F086FECDE9006580
:1034F0002078A278801CC1B23B46204600F07CFEBA
:10350000CDE90065A0783B46C01CC2B22078801C83
:10351000C1B2204600F070FECDE900652078A278A7
:10352000C01CC1B23B46204600F066FECDE90065F6
:10353000A078801CC2B220783B46C01CC1B2204695
:1035400000F05AFECDE90065A078C01CC2B2207818
:10355000C01CC1B23B46204600F04EFECDE90065DE
:10356000A0783B46401CC2B22078001DC1B2204664
:1035700000F042FECDE90065A078801CFFF72DBB6E
:10358000CDE90065C2B2C9B23B46204600F034FE28
:10359000CDE90065A0782178401CC2B23B462046A8
:1035A00000F02AFECDE90065A0782178801CC2B227
:1035B0003B46204600F020FECDE900652078A27849
:1035C000401CC1B23B46204600F016FECDE9006526
:1035D000A0783B46C01CC2B22078401CC1B2204635
:1035E00000F00AFECDE900652078A278801CC1B207
:1035F0003B46204600F000FECDE90065A0783B4642
:10360000401CC2B22078801CC1B2204600F0F4FDFC
:10361000CDE90065A078801CC2B220783B46801CB2
:10362000C1B2204600F0E8FDCDE900652078A2781F
:10363000C01CC1B23B46204600F0DEFDCDE900656E
:10364000A0783B46C01CC2B22078C01CC1B2204644
:1036500000F0D2FDCDE90065A0788FE7401CCDE9F0
:103660000065C2B2C9B23B46204600F0C5FDCDE9B7
:103670000065A0782178801CC2B23B46204600F04D
:10368000BBFDCDE90065A0782178C01CC2B23B46E5
:10369000204600F0B1FDCDE900652078A278401CFD
:1036A000C1B23B46204600F0A7FDCDE90065A078F9
:1036B0003B46401CC2B22078801CC1B2204600F0BC
:1036C0009BFDCDE90065A078801CC2B22078801CEB
:1036D000C1B23B46204600F08FFDCDE90065A078E1
:1036E0003B46C01CC2B22078C01CC1B2204600F0CC
:1036F00083FDCDE900652078A278001DC1B23B466C
:10370000204600F079FDCDE90065A0783B46401CDD
:10371000C2B22078001DC1B2204600F06DFDCDE997
:103720000065A078801CF3E5CDE90065C2B2C9B29E
:103730003B46204600F060FDCDE90065A078217889
:10374000401CC2B23B46204600F056FDCDE9006564
:10375000A0782178801CC2B23B46204600F04CFD88
:10376000CDE90065A0783B46401CC2B22078401CE1
:10377000C1B2204600F040FDCDE90065A0783B468F
:10378000401CC2B22078801CC1B2204600F034FD3B
:10379000CDE90065A0783B46401CC2B22078C01C31
:1037A000C1B2204600F028FDCDE90065A078401C9C
:1037B00000E0B4E1C2B22078001D01E2CDE900656D
:1037C000C2B2C9B23B46204600F016FDCDE9006505
:1037D0002078A278401CC1B23B46204600F00CFD88
:1037E000CDE900652078A278801CC1B23B46204616
:1037F00000F002FDCDE900652078A278C01CC1B2BE
:103800003B46204600F0F8FCCDE90065A0783B4639
:10381000401CC2B22078001DC1B2204600F0ECFC72
:10382000CDE90065A0783B46801CC2B22078001D1F
:10383000C1B2204600F0E0FCCDE90065A078C01CD4
:10384000C2B220783B46C1B2204600F0D5FCCDE99B
:103850000065A0783B46C01CC2B22078401CC1B2B3
:10386000204600F0C9FCCDE90065A0783B46C01CAD
:10387000C2B22078801CC1B2204600F0BDFCCDE968
:103880000065A078C01CC2B22078C01C5CE0CDE905
:103890000065C2B2C9B23B46204600F0ADFCCDE99E
:1038A00000652078A278401CC1B23B46204600F05B
:1038B000A3FCCDE900652078A278801CC1B23B460C
:1038C000204600F099FCCDE90065A0783B46401CFD
:1038D000C2B22078C01CC1B2204600F08DFCCDE9F8
:1038E0000065A0783B46801CC2B22078C01CC1B2E3
:1038F000204600F081FCCDE90065A0783B46801CA5
:10390000C2B22078001DC1B2204600F075FCCDE99E
:103910000065A0782178C01CC2B23B46204600F06A
:103920006BFCCDE90065A0783B46C01CC2B2207894
:10393000401CC1B2204600F05FFCCDE90065A078D4
:10394000C01CC2B22078801CC1B23B46204600F0A9
:1039500053FCBDE8FC81CDE90065C2B2C9B23B466B
:10396000204600F049FCCDE900652078A278401C93
:10397000C1B23B46204600F03FFCCDE9006520780F
:10398000A278801CC1B23B46204600F035FCCDE950
:1039900000652078A278C01CC1B23B46204600F0EA
:1039A0002BFCCDE90065A0783B46401CC2B22078D4
:1039B000001DC1B2204600F01FFCCDE90065A078D3
:1039C0003B46801CC2B22078401CC1B2204600F0A9
:1039D00013FCCDE90065A0783B46801CC2B220787C
:1039E000801CC1B2204600F007FCCDE90065A0783C
:1039F0003B46801CC2B22078C01CC1B2204600F0F9
:103A0000FBFBCDE90065A078C01CC2B22078001D88
:103A100000E02DE0C1B23B46204600F0EDFBCDE9D1
:103A20000065A0782178001DC2B23B46204600F018
:103A3000E3FBCDE90065A0783B46001DC2B22078CB
:103A4000401CC1B2204600F0D7FBCDE90065A0784C
:103A50003B46001DC2B22078801CC1B2204600F057
:103A6000CBFBCDE90065A078001DC2B22078C01C58
:103A7000C1B23B46204600F0BFFB6088401DA6E077
:103A8000CDE90065C2B2C9B23B46204600F0B4FBA6
:103A9000CDE900652078A278401CC1B23B462046A3
:103AA00000F0AAFBCDE900652078A278C01CC1B265
:103AB0003B46204600F0A0FBCDE900652078A278C7
:103AC000001DC1B23B46204600F096FBCDE90065E3
:103AD000A0783B46401CC2B22078801CC1B2204670
:103AE00000F08AFBCDE90065A0782178801CC2B285
:103AF0003B46204600F080FBCDE90065A0783B46C0
:103B0000801CC2B22078401CC1B2204600F074FB79
:103B1000CDE90065A078801CC2B22078C01CC1B27B
:103B20003B46204600F068FBCDE90065A078801C8C
:103B30003EE6CDE90065C2B2C9B23B46204600F080
:103B40005BFBCDE900652078A278401CC1B23B4602
:103B5000204600F051FBCDE90065A0783B46401CB3
:103B6000C2B22078801CC1B2204600F045FBCDE9EE
:103B70000065A0783B46401CC2B22078C01CC1B290
:103B8000204600F039FBCDE90065A0783B46401C9B
:103B9000C2B22078001DC1B2204600F02DFBCDE955
:103BA0000065A0782178801CC2B23B46204600F018
:103BB00023FBCDE90065A078801CC2B22078401CB0
:103BC000C1B23B46204600F017FB6088C01CE08075
:103BD000BFE6CDE90065C2B2C9B23B46204600F05F
:103BE0000BFBCDE90065A0782178401CC2B23B46B2
:103BF000204600F001FBCDE90065A0782178801C0B
:103C0000C2B23B46204600F0F7FACDE90065A07845
:103C10002178C01CC2B23B46204600F0EDFACDE947
:103C20000065A0783B46801CC2B22078401CC1B21F
:103C3000204600F0E1FACDE90065A078401CFFF7CE
:103C40007FB8CDE9002C2B4632463946204600F09D
:103C500001F87EE62DE9FF4F85B01E46DDE912151D
:103C6000174604007ED001202E394FF002094FF094
:103C700003084FF0040B4FF0070A0C2972D2DFE85B
:103C800001F0FDA40648A7E5FCFBFAF9F8F7618806
:103C90002288CDE90215CDE900023A462046069970
:103CA00000F024FA60882188CDF800900395CDE9D2
:103CB000011033463A462046069900F017FA61880B
:103CC00020880DF1040ACDF800808AE823003346ED
:103CD0003A462046069900F009FA62882188CDF814
:103CE00000B08AE8260033463A462046069900F09E
:103CF000FDF962882088052100918AE82500334675
:103D00003A462046069900F0F1F96088218806229B
:103D100094E0CDE90076A0782178401CC2B220461C
:103D2000069B00F069FACDE900762078A278401C65
:103D3000C1B22046069B00F05FFACDE90076A0787C
:103D4000069B401CC2B22078401CC1B2204600F045
:103D500053FACDE90076A078401CC2B22078801CCE
:103D6000C1B200E031E02046069B00F045FACDE903
:103D70000076A078069B401CC2B22078C01CC1B25D
:103D8000204600F039FACDE90076A078069B401C69
:103D9000C2B22078001DC1B2204600F02DFACDE954
:103DA00000762078A278001DC1B22046069B00F064
:103DB00023FACDE90076A078069B801CC2B2207859
:103DC000001DC1B2204600F017FA09B0BDE8F08F1F
:103DD00061882288CDE90215CDE900023A462046E5
:103DE000069900F083F96288208801A9CDF8009037
:103DF00081E8250033463A462046069900F076F9D8
:103E00006288208801A9CDF800A081E8250033460A
:103E10003A462046069900F069F9628821880DF13A
:103E20000408CDF800B088E8260033463A4620461C
:103E3000069900F05BF96088218805224FEA0603A5
:103E4000CDE90021CDE902053A465CE0618822888F
:103E5000CDE90215CDE900023A462046069900F068
:103E600045F962882088334601A9CDF8009006E024
:103E7000FEE0C3E0A7E06AE04AE020E032E181E84A
:103E800025003A462046069900F030F961882088DE
:103E90000DF1040CCDF800808CE8230033463A463F
:103EA0002046069900F022F9628821880DF1040C61
:103EB000CDF800B08CE8260033463A4616E061881B
:103EC00020880DF1040BCDF800908BE823003A46D2
:103ED0002046069900F00AF961882288CDF8008012
:103EE0000395CDE9012133463A465EE02046069926
:103EF00000F0FCF860882188CDF800A00395CDE99A
:103F0000011033463A462046069900F0EFF85CE788
:103F1000628821888DE827003A462046069900F0FD
:103F2000E5F860882188CDF800800395CDE901107F
:103F300033463A462046069900F0D8F86288208831
:103F400001A9CDF800B081E8250033468EE06188F4
:103F50002288CDE90215CDE900023A4620460699AD
:103F600000F0C4F86288208801A9CDF8008081E8BB
:103F7000250033463A462046069900F0B7F8608897
:103F80002188CDF800B00395CDE9011033463A46BB
:103F90002046069900F0AAF8618820880522CDE91C
:103FA0000020CDE9021533463A462046069900F036
:103FB0009DF8618820880622CDE90020CDE9021510
:103FC00033463A4692E7628821888DE827003A46D0
:103FD0002046069900F08AF860882188CDF8009084
:103FE0000395CDE9011033463A462046069900F084
:103FF0007DF860882188CDF800807FE7618822887D
:10400000CDE90215CDE900023A462046069900F0B6
:104010006DF860882288CDF800900395CDE90120E5
:1040200033463A462046069900F060F862882088B8
:1040300001A9CDF8008081E8250033463A462046A4
:10404000069900F053F860882188CDF800B00395F8
:10405000CDE9011033463A462046069900F046F86D
:104060006288218805208DE8270033463A462BE0F8
:10407000628821888DE827003A462046069900F09C
:1040800035F860882188CDF800900395CDE90110BE
:1040900033463A462046069900F028F86088218881
:1040A000CDF800800395CDE9011033463A4620460D
:1040B000069900F01BF860882188CDF800B00395C0
:1040C000CDE9011033463A462046069900F00EF835
:1040D000608821880622CDE90021CDE9020533461A
:1040E0003A4603E7608821880822A9E62DE9FE4FB9
:1040F00099468A461346DDE90D15DDF830C00F9A62
:10410000040054D08DF808A08DF809308DF80A907D
:1041100002A8012A0FD0002A49D1AA1C8E1C0F1D0B
:1041200092B2BCF1090F3CD2DFE80CF03B343643CD
:10413000484D505558002A1DCE1C8F1D92B2BCF11F
:10414000080F0CD2DFE80CF00B040611161B1E231F
:104150000B4611E0B3B20AE0204600F031FA2088A5
:10416000001DA0806088801D20E0BBB2B1B2CDE907
:104170000020F1E7BBB2B9B2CDE9002005E0BBB247
:10418000B1B200E0B3B2CDE900502A46E4E7B3B2E1
:10419000B1B2F1E70B4613E0B3B20CE0204600F0F9
:1041A0000FFA2088001DA0806088C01CE080BDE858
:1041B000FE8FBBB2B1B2CDE90020EFE7BBB2B9B21E
:1041C000CDE9002005E0BBB2B1B200E0B3B2CDE969
:1041D00000502A46E2E7B3B2B1B2F1E7CDE90039C7
:1041E000EAB2F9B25346204600F006F82088001DD6
:1041F000A0806088401CD9E730B501EB410100EB9D
:104200004110DDE9034502EB4201084400F85B3D43
:104210004470857030BD0907090E002804DB00F1E9
:10422000E02080F80014704700F00F0000F1E0205B
:1042300080F8141D704730380A2801D201207047D9
:10424000002070474FF440710830FCF7C0B8000000
:1042500010B504460948FDF7EFFB08496FF001026D
:1042600004E008680369DB07FCD00261641EF8D231
:10427000BDE810400148FDF733BC0000F400002009
:104280001FB54FF4006100910121039130B100206E
:10429000019069460248FCF74BFC1FBD0191F8E70D
:1042A000000C0140034908B1C81401E04FF0006060
:1042B00008607047100C01402DE9F047040025D03C
:1042C0000021A16021730846FFF7DAFF0020FFF705
:1042D000E9FF44F62060FFF7BBFF0120FFF7E2FF94
:1042E0001E20FFF7B5FF0120FFF7CAFF5FF095051D
:1042F00000F084F828B10120FFF7AAFF6D1EF7D166
:1043000004E01DB14FF0010896250FE00020BDE844
:10431000F08700BF00F072F828B1002DF6D000261B
:10432000002764250EE00120FFF792FF6D1E15F0B7
:10433000FF05EFD1EAE700BF00F060F838B10120D7
:10434000FFF786FF6D1E15F0FF05F5D1DEE7002DA6
:10435000DCD0642546E000BF00F050F8F0B3002D3B
:10436000D4D01E20FFF774FF00F048F8012804EBBA
:1043700006003CD0017A49007F1CFFB20172082F71
:10438000CFD3761CF6B2052ECAD3217A607AA67AEC
:10439000E77A88460144F2191144227BC9B291425E
:1043A0001ED100F09FFADFF85090494600F09CF9CA
:1043B0000546404600F096FA294600F033F92060A1
:1043C000384600F08FFA494600F08EF9054630462F
:1043D00000F088FA294600F025F900E002E060606C
:1043E000012094E76D1E15F0FF05B5D18EE7027A26
:1043F00008EB4201C0E70000000020414FF40061DB
:104400000148FCF785BC0000000C01401CB52B489E
:10441000B0F9000007283FD2DFE800F0040C1014C8
:1044200008183F00BDE81C40FCF7E0B8BDE81C40A0
:10443000FDF7CEBCBDE81C40FCF76CB9BDE81C40E4
:10444000FEF7FAB8BDE81C40FEF7B0B91C48FFF70C
:10445000F9FE1C4C2078401CC0B220700A281BD3E7
:10446000B4F90200184900EBC00001EB401008212C
:10447000CDE9001001220C231146114800F044F848
:10448000FCF724FA6088401E00B26080002801DA40
:104490000A206080002020701CBD0948FFF7D2FE72
:1044A0000A490720CDE900010346012211460448CC
:1044B00000F056F8BDE81C40FCF708BA16000020D2
:1044C0008419002010000020D84F0008385C000834
:1044D000FCF736FCFDF7E2FFFDF7B4FCFDF79CFCB2
:1044E000FDF7F8FCFDF70EFDFDF762FDFDF72EFD73
:1044F0000448FDF7C9FAFEF785F80A20FCF706FB29
:10450000FBE700003C0100202DE9FF4F83B09B46F4
:10451000DDE910079246002F1FD0039A002A1CD015
:1045200000260C4601EB000915E055460AEB0B0886
:104530000DE0B819EAB281784078CDE90001BB5DA1
:10454000E1B20398FFF758FE6D1CADB2F61CA8450A
:10455000EFD8641CA4B2A145E7D807B0BDE8F08F3E
:104560002DE9FF4F83B09246DDE91009039A9B467F
:10457000002A22D05FEA09021FD000260C4601EB78
:10458000000818E055460AEB0B0710E059F8260022
:10459000EAB2C0F30743C0F30721C0B2CDE900106F
:1045A000E1B20398FFF728FE6D1CADB2761CAF4256
:1045B000ECD8641CA4B2A045E4D807B0BDE8F08FE5
:1045C0002DE9FC471D46DDE90A6791465FEA000ACE
:1045D00025D0002F23D0681A21D4B6EB09001ED4B1
:1045E000082D00D90825202E00D92026C8B213E0B6
:1045F00009F0FF040BE0B9787878CDE900013B7849
:10460000224641465046FFF7F7FD641CE4B2B4422F
:10461000F1D908F10100C0B28046A842E8D9BDE84E
:10462000FC87000090EA010F48BF81F0004100F1D3
:104630004082421A3CBF801A89184FEAD0524FF08C
:104640007F4C1CEA410FA2EBD15318BF9CEA026FCA
:1046500000F03B804FF0004C4CEA00204CEA012176
:1046600021FA03FC10EB0C0C1ED202F1FF325FEAC0
:104670001C2040EBC25038BF70471CF07F0F4FEA40
:10468000400C18BFBCF17F4F38BF7047C3F1200307
:10469000994008BF20F00100BCF17F4F38BF704740
:1046A000A0F1C04000F0F9B94FEA3C00000A40EB2D
:1046B000C25028BF1CF0FF0F4FEA400CE6D018BFD5
:1046C000BCF17F4F38BF7047EAE79CEA026F05D024
:1046D00010EA5C0F08BF00F00040704710B500F012
:1046E00096F900BF64FBBE3E4FF47F0C1CEAD0126B
:1046F0001EBF1CEAD11392EA0C0F93EA0C0F00F0D4
:10470000858090EA010F48BF42F4807240F4000CAB
:1047100041F400002CF07F4120F07F4000B5814241
:10472000A2EB03020FF2081CACEB504EC0F10000EC
:104730009EF800E04FEA4E0E00FB0EFC38BF490029
:104740004FEA2C1C02F5FA020CFB0EF34FEACE1EC8
:104750004FEA112C4FEAC1210EEB635E42EB22427D
:104760000EFB0CFC4FEA1C5300FB03114FEA112C0B
:104770004FEA01310EFB0CFC4FEADC4C00FB0C1144
:10478000C14228BF09184CEB03335DF804EB10EB72
:10479000410143EBC250B2F57C0F38BF704729D5B9
:1047A00012F0F00F1CBF00F1C04000F00040704755
:1047B000008182838485868788898B8C8D8E8F91FA
:1047C0009293959697999A9C9D9FA0A2A3A5A7A81E
:1047D000AAACAEB0B2B3B5B7B9BCBEC0C2C5C7C94A
:1047E000CCCED1D4D7D9DCDFE2E6E9ECF0F3F7FAAE
:1047F000FE0000004FEA400C0CF1807CBCF17E4FC3
:1048000028BF7047B0F1C04000F047B990EA010FEF
:104810000CEAD11348BF42F48072624538BF634549
:1048200007D213F47F0F16D080EA010000F0004099
:10483000704710B500F0EBF8097EFC3E00F005B8BB
:1048400080EA010000F00040704780EA010000F0BB
:10485000004000F022B912F47F0F04BF02487047F5
:1048600080EA010000F019B90000C07F41000B0E82
:10487000D3F19E0208D950F400034FEA032323FA30
:1048800002F048BF4042704710B500F0C0F800BFCA
:1048900049922480002070476FF0004282EA200095
:1048A00070470000C10DD1F19E0206DB4FEA0023E4
:1048B00043F0004323FA02F07047004207D54FEA65
:1048C0004001B1F1FE4F02D24FF00000704710B529
:1048D00000F09DF849922480002070476FEA200084
:1048E00070470000B0FA80F310FA03F2C3F19D03A1
:1048F0000AD0D90501EB1220530638BF704700F1EA
:10490000010008BF20F00100704700004FF47F0C49
:104910001CEAD0121EBF1CEAD11392EA0C0F93EAD4
:104920000C0F00F0478090EA010F48BF42F48072FC
:104930004FF0004C4CEA00204CEA012102EB03024C
:10494000A0FB0113A2F50002002918BF43F00103E8
:104950005B0028BF4FEA330342EB22425FEA132C8D
:104960004CEBC2502EBFBCEB436FB2F57C0F7047CF
:104970004FEA036CBCF1004F08BF20F00100B2F514
:104980007C0F38BF70470BD582F0FF0212F5803FD5
:10499000C8BF704700F1C040D8BF00F0004070476A
:1049A00000F5000C5FEA4C0C48BF7047B0F1C04006
:1049B00000F073B890EA010F0CEAD11348BF42F43B
:1049C0008072624538BF634504D280EA010000F07E
:1049D0000040704710B500F01AF800BF8900013E92
:1049E00000F007B800F009B85FEA410C5FEA1C6C00
:1049F00008D080EA010000F050B85FEA400C5FEA9E
:104A00001C6CF6D14FF00040A0F5800070470EF10D
:104A1000020E2EF0030E5EF8044B244204D44FEA3B
:104A20004102B2F17F4F11D84FEA4003B3F17F4FFB
:104A30000CD80ED14FEAD07CB2F17F4F0CEB4C0C6E
:104A40000CF1020C08BF4CEBD17C04E04FF0080CD9
:104A500001E04FEAD17C0CEB4C0324FA03F404F0A0
:104A60000704B4F1040C06D20EEB840CBDE8104030
:104A70004CF0010C6047DFE80CF0070802024FF031
:104A80000040A0F5800010BD0846420018BFD2F1DA
:104A9000807288BF00F0004010BDFF2141EAD05075
:104AA000C005704790EA010F48BF81F000413FF513
:104AB000C0AD421A04D882F00042A0EB02001144BB
:104AC0004FEAD0524FF07F4C1CEA410FA2EBD1537A
:104AD00018BF9CEA026F4AD04FF0004C4CEA00200D
:104AE0004CEA012121FA03FCB0EB0C0C0FD412F0BC
:104AF000FE0F36D05FEA4C001DD5001240EBC250CD
:104B000038BF70471CF03F0F18BF70470BE0A2F191
:104B100001025FEA1C2040EBC25038BF70471CF016
:104B20007F0F18BF7047C3F12003994014BF401E88
:104B300020F00100704780084FEA122308BF704739
:104B4000B0FA80FCA2EB0C02CCF1280C60FA0CF05D
:104B500093EA122F04BF00EBC25070474FEAC370B4
:104B60007047130A5FEADC1008BF7047F6E79CEA5B
:104B7000026F04D010EA5C0F08BF0020704710B528
:104B8000FFF745FF40DFF63E81F00040704701022D
:104B900002030405060708090A0B0C0D0E0F10107E
:104BA000010202030405060708090A0B0C0D0E0F8B
:104BB00010100000000000000000010203040607BE
:104BC00008090000000001020304808080808080CA
:104BD0002020202020202020202020208080808055
:104BE0008080808080101010000000808080000095
:104BF00000000000101010808080202020000000A5
:104C00000000008080800000000000000000002004
:104C10002020202020000000000000808080000074
:104C20000080808000000020202020202000000044
:104C30000000008080808080800000000000002054
:104C400020202020200000000000000000000000C4
:104C50000000000000000020202080808010101044
:104C60000000000000000000000000001010108094
:104C70008080808080808080202020202020202034
:104C800020202020808080808080000000000000A4
:104C9000888888888888888888000000000000004C
:104CA00000008888880000008888880000000000D4
:104CB000000000008888888214148888880000001A
:104CC000000000000000888888821414888888000A
:104CD0000000000000000000888888821414888882
:104CE0008800000000000088888882141482141450
:104CF00082141488888800000088888882141482AE
:104D00001414821414888888000000000000888829
:104D100088888888888888000000000000000000DB
:104D200088888888888888888800000000000000BB
:104D30000000888888000000888888000000000043
:104D40000000000088888800000088888800000033
:104D50000000000000008888888214148888880079
:104D600000000000000000008888888214148888F1
:104D700088000000000000888888821414821414BF
:104D8000821414888888000000888888821414821D
:104D90001414821414888888000000000000888899
:104DA000888888888888880000000000000000004B
:104DB000888888888888888888000000000000002B
:104DC00000008888880000008888880000000000B3
:104DD00000000000888888000000888888000000A3
:104DE0000000000000008888880000008888880093
:104DF0000000000000000000888888821414888861
:104E0000880000000000008888888214148214142E
:104E1000821414888888000000888888821414828C
:104E20001414821414888888000000000000888808
:104E300088888888888888000000000000000000BA
:104E4000888888888888888888000000000000009A
:104E50000000888888000000888888000000000022
:104E60000000000088888800000088888800000012
:104E70000000000000008888880000008888880002
:104E8000000000000000000088888800000088887A
:104E9000880000000000008888888214148214149E
:104EA00082141488888800000088888882141482FC
:104EB0001414821414888888000000000000888878
:104EC000888888888888880000000000000000002A
:104ED0008888880000000000000000008888881B87
:104EE00047878888880000000000008888881B4762
:104EF000878888880000008888881B47871B478729
:104F00001B47878888888888881B47871B47871B9B
:104F100047878888880000008888888888888888EB
:104F20008800000000000000000088888800000061
:104F30000000000000008888880000008888880041
:104F400000000000008888881B4787888888000048
:104F5000008888881B47871B47871B478788888866
:104F60008888881B47871B47871B47878888880056
:104F70000000888888888888888888000000000069
:104F80000000000088888800000000000000000089
:104F90008888880000008888880000000000008859
:104FA00088880000008888880000008888881B475F
:104FB000871B47871B47878888888888881B47877F
:104FC0001B47871B47878888880000008888888857
:104FD0008888888888000000000000000000000029
:104FE00000000000000000000000000000000000C1
:104FF00000000000000000000000000000000000B1
:1050000000000000000000000000000000000000A0
:105010000000000000000000000000000000000090
:105020000000000000000000000000000000000080
:105030000000000000000000000000000000000070
:105040000000000000000000000000000020529658
:105050002052962052962052960000000000000038
:1050600000000000000000000000002052962052C6
:10507000960000002052962052962052962052967A
:1050800000000000000020529600000000000020F8
:105090005296205296205296205296205296205296
:1050A0009620529600000000000020529620529652
:1050B0000000008888888888888888882052962000
:1050C0005296205296205296205296205296205266
:1050D000960000000000000000008888888888880A
:1050E00088888820529620529620529620529620E8
:1050F00052960000000000000000000000000000C8
:10510000000000000000000000000000000000009F
:10511000000000000000000000000000000000008F
:10512000000000000000000000000000000000007F
:10513000000000000000000000000000000000006F
:105140002052960000000000000000000000000057
:105150000000000000000000205296000000000047
:105160000000000000000000000000000020529637
:105170002052962052962052960000000000000017
:1051800000000000000000000000002052962052A5
:105190009600000020529620529620529620529659
:1051A00000000000000020529600000000000020D7
:1051B0005296205296205296205296205296205275
:1051C0009620529600000000000020529620529631
:1051D00000000088888888888888888820529620DF
:1051E0005296205296205296205296205296205245
:1051F00096000000000000000000888888888888E9
:1052000088888820529620529620529620529620C6
:1052100052960000000000000000000000000000A6
:10522000000000000000000000000000000000007E
:10523000000000000000000000000000000000204E
:105240005296000000000000000000000000000076
:105250000020529600000000000000000000000046
:105260002052960000000000000000000000000036
:105270000000000000000000205296000000000026
:105280000000000000000000000000000020529616
:1052900020529620529620529600000000000000F6
:1052A0000000000000000000000000205296205284
:1052B0009600000020529620529620529620529638
:1052C00000000000000020529600000000000020B6
:1052D0005296205296205296205296205296205254
:1052E0009620529600000000000020529620529610
:1052F00000000088888888888888888820529620BE
:105300005296205296205296205296205296205223
:1053100096000000000000000000888888888888C7
:1053200088888820529620529620529620529620A5
:105330005296000000000000000000000000205213
:1053400096205296000000205296205296000000AF
:10535000000000000000000000000000000000202D
:105360005296000000000000000000000000000055
:105370000020529600000000000000000000000025
:105380002052960000000000000000000000000015
:105390000000000000000000205296000000000005
:1053A00000000000000000000000000000205296F5
:1053B00020529620529620529600000000000000D5
:1053C0000000000000000000000000205296205263
:1053D0009600000020529620529620529620529617
:1053E0000000000000002052960000000000002095
:1053F0005296205296205296205296205296205233
:1054000096205296000000000000205296205296EE
:10541000000000888888888888888888205296209C
:105420005296205296205296205296205296205202
:1054300096000000000000000000888888888888A6
:105440008888882052962052962052962052962084
:1054500052960000000000000000000000002052F2
:10546000962052960000002052962052960000008E
:10547000000000000000000000000000000000200C
:10548000529600000000000020529600000000002C
:105490000020529600000000000000000000000004
:1054A00020529600000000000000000000000000F4
:1054B00000000000000000002052960000000000E4
:1054C00000000000000000000000000000205296D4
:1054D00020529620529620529600000000000000B4
:1054E0000000000000000000000000205296205242
:1054F00096000000205296205296205296205296F6
:105500000000000000002052960000000000002073
:105510005296205296205296205296205296205211
:1055200096205296000000000000205296205296CD
:10553000000000888888888888888888205296207B
:1055400052962052962052962052962052962052E1
:105550009600000000000000000088888888888885
:105560008888882052962052962052962052962063
:1055700052960000000000000000000000002052D1
:10558000962052960000002052962052960000006D
:1055900000000000000000000000000000000020EB
:1055A000529600000000000020529600000000000B
:1055B00000205296000000000000000000000000E3
:1055C00020529600000000000000000020529600CB
:1055D00000000000000000002052960000000000C3
:1055E00000000000000000000000000000205296B3
:1055F0002052962052962052960000000000000093
:105600000000000000000000000000205296205220
:1056100096000000205296205296205296205296D4
:105620000000000000002052960000000000002052
:1056300052962052962052962052962052962052F0
:1056400096205296000000000000205296205296AC
:10565000000000888888888888888888205296205A
:1056600052962052962052962052962052962052C0
:105670009600000000000000000088888888888864
:105680008888882052962052962052962052962042
:1056900052960000000000000000000000002052B0
:1056A000962052960000002052962052960000004C
:1056B00000000000000000000000000000000020CA
:1056C00052960000000000002052960000000000EA
:1056D00000205296000000000000000000000000C2
:1056E00000000000000000000000000020529600B2
:1056F00000000000000000000000000000000000AA
:105700000000000000000000000000000020529691
:105710002052962052962052960000000000000071
:1057200000000000000000000000002052962052FF
:1057300096000000205296205296205296205296B3
:105740000000000000002052960000000000002031
:1057500052962052962052962052962052962052CF
:10576000962052960000000000002052962052968B
:105770000000008888888888888888882052962039
:10578000529620529620529620529620529620529F
:105790009600000000000000000088888888888843
:1057A0008888882052962052962052962052962021
:1057B000529600000000000000000000000020528F
:1057C000962052960000002052962052960000002B
:1057D00000000000000000000000000000000000C9
:1057E00000000000000000002052960000000000B1
:1057F00000000000000000000000000000000000A9
:105800000000000000000000000000002052960090
:105810000000000000000000000000000000000088
:105820000000000000000000000000000020529670
:105830002052962052962052960000000000000050
:1058400000000000000000000000002052962052DE
:105850009600000020529620529620529620529692
:105860000000000000002052960000000000002010
:1058700052962052962052962052962052962052AE
:10588000962052960000000000002052962052966A
:105890000000008888888888888888882052962018
:1058A000529620529620529620529620529620527E
:1058B0009600000000000000000088888888888822
:1058C0008888882052962052962052962052962000
:1058D00052960000000000000000000000000000E0
:1058E00000000000000000000000000000000000B8
:1058F00000000000000000000000000000000000A8
:10590000000000000000000020529600000000008F
:105910000000000000000000000000000000000087
:10592000000000000000000000000000205296006F
:105930000000000000000000000000000000000067
:10594000000000000000000000000000002052964F
:10595000205296205296205296000000000000002F
:1059600000000000000000000000002052962052BD
:105970009600000020529620529620529620529671
:1059800000000000000020529600000000000020EF
:10599000529620529620529620529620529620528D
:1059A0009620529600000000000020529620529649
:1059B00000000088888888888888888820529620F7
:1059C000529620529620529620529620529620525D
:1059D0009600000000000000000088888888888801
:1059E00088888820529620529620529620529620DF
:1059F00052960000000000000000000000000000BF
:105A00000000000000000000000000000000000096
:105A10000000000000000000000000000000000086
:105A20000000000000000000000000000000000076
:105A30000000000000000000000000000000000066
:105A4000000000000000000000000000205296004E
:105A50000000000000000000000000000000000046
:105A6000000000000000000000000000002052962E
:105A7000205296205296205296000000000000000E
:105A8000000000000000000000000020529620529C
:105A90009600000020529620529620529620529650
:105AA00000000000000020529600000000000020CE
:105AB000529620529620529620529620529620526C
:105AC0009620529600000000000020529620529628
:105AD00000000088888888888888888820529620D6
